{
  "contractName": "AuctionRepository",
  "abi": [
    {
      "anonymous": false,
      "inputs": [
        {
          "indexed": false,
          "internalType": "address",
          "name": "_owner",
          "type": "address"
        },
        {
          "indexed": false,
          "internalType": "uint256",
          "name": "_auctionId",
          "type": "uint256"
        }
      ],
      "name": "AuctionCanceled",
      "type": "event"
    },
    {
      "anonymous": false,
      "inputs": [
        {
          "indexed": false,
          "internalType": "address",
          "name": "_owner",
          "type": "address"
        },
        {
          "indexed": false,
          "internalType": "uint256",
          "name": "_auctionId",
          "type": "uint256"
        }
      ],
      "name": "AuctionCreated",
      "type": "event"
    },
    {
      "anonymous": false,
      "inputs": [
        {
          "indexed": false,
          "internalType": "address",
          "name": "_owner",
          "type": "address"
        },
        {
          "indexed": false,
          "internalType": "uint256",
          "name": "_auctionId",
          "type": "uint256"
        }
      ],
      "name": "AuctionFinalized",
      "type": "event"
    },
    {
      "anonymous": false,
      "inputs": [
        {
          "indexed": false,
          "internalType": "address",
          "name": "_from",
          "type": "address"
        },
        {
          "indexed": false,
          "internalType": "uint256",
          "name": "_auctionId",
          "type": "uint256"
        }
      ],
      "name": "BidSuccess",
      "type": "event"
    },
    {
      "inputs": [
        {
          "internalType": "uint256",
          "name": "",
          "type": "uint256"
        },
        {
          "internalType": "uint256",
          "name": "",
          "type": "uint256"
        }
      ],
      "name": "auctionBids",
      "outputs": [
        {
          "internalType": "address payable",
          "name": "from",
          "type": "address"
        },
        {
          "internalType": "uint256",
          "name": "amount",
          "type": "uint256"
        }
      ],
      "stateMutability": "view",
      "type": "function"
    },
    {
      "inputs": [
        {
          "internalType": "address",
          "name": "",
          "type": "address"
        },
        {
          "internalType": "uint256",
          "name": "",
          "type": "uint256"
        }
      ],
      "name": "auctionOwner",
      "outputs": [
        {
          "internalType": "uint256",
          "name": "",
          "type": "uint256"
        }
      ],
      "stateMutability": "view",
      "type": "function"
    },
    {
      "inputs": [
        {
          "internalType": "uint256",
          "name": "",
          "type": "uint256"
        }
      ],
      "name": "auctions",
      "outputs": [
        {
          "internalType": "string",
          "name": "name",
          "type": "string"
        },
        {
          "internalType": "uint256",
          "name": "blockDeadline",
          "type": "uint256"
        },
        {
          "internalType": "uint256",
          "name": "startPrice",
          "type": "uint256"
        },
        {
          "internalType": "string",
          "name": "metadata",
          "type": "string"
        },
        {
          "internalType": "uint256",
          "name": "deedId",
          "type": "uint256"
        },
        {
          "internalType": "address",
          "name": "deedRepositoryAddress",
          "type": "address"
        },
        {
          "internalType": "address",
          "name": "owner",
          "type": "address"
        },
        {
          "internalType": "bool",
          "name": "active",
          "type": "bool"
        },
        {
          "internalType": "bool",
          "name": "finalized",
          "type": "bool"
        }
      ],
      "stateMutability": "view",
      "type": "function"
    },
    {
      "stateMutability": "payable",
      "type": "receive"
    },
    {
      "inputs": [],
      "name": "getCount",
      "outputs": [
        {
          "internalType": "uint256",
          "name": "",
          "type": "uint256"
        }
      ],
      "stateMutability": "view",
      "type": "function"
    },
    {
      "inputs": [
        {
          "internalType": "uint256",
          "name": "_auctionId",
          "type": "uint256"
        }
      ],
      "name": "getBidsCount",
      "outputs": [
        {
          "internalType": "uint256",
          "name": "",
          "type": "uint256"
        }
      ],
      "stateMutability": "view",
      "type": "function"
    },
    {
      "inputs": [
        {
          "internalType": "address",
          "name": "_owner",
          "type": "address"
        }
      ],
      "name": "getAuctionsOf",
      "outputs": [
        {
          "internalType": "uint256[]",
          "name": "",
          "type": "uint256[]"
        }
      ],
      "stateMutability": "view",
      "type": "function"
    },
    {
      "inputs": [
        {
          "internalType": "uint256",
          "name": "_auctionId",
          "type": "uint256"
        }
      ],
      "name": "getCurrentBid",
      "outputs": [
        {
          "internalType": "uint256",
          "name": "",
          "type": "uint256"
        },
        {
          "internalType": "address",
          "name": "",
          "type": "address"
        }
      ],
      "stateMutability": "view",
      "type": "function"
    },
    {
      "inputs": [
        {
          "internalType": "address",
          "name": "_owner",
          "type": "address"
        }
      ],
      "name": "getAuctionsCountOfOwner",
      "outputs": [
        {
          "internalType": "uint256",
          "name": "",
          "type": "uint256"
        }
      ],
      "stateMutability": "view",
      "type": "function"
    },
    {
      "inputs": [
        {
          "internalType": "uint256",
          "name": "_auctionId",
          "type": "uint256"
        }
      ],
      "name": "getAuctionById",
      "outputs": [
        {
          "internalType": "string",
          "name": "name",
          "type": "string"
        },
        {
          "internalType": "uint256",
          "name": "blockDeadline",
          "type": "uint256"
        },
        {
          "internalType": "uint256",
          "name": "startPrice",
          "type": "uint256"
        },
        {
          "internalType": "string",
          "name": "metadata",
          "type": "string"
        },
        {
          "internalType": "uint256",
          "name": "deedId",
          "type": "uint256"
        },
        {
          "internalType": "address",
          "name": "deedRepositoryAddress",
          "type": "address"
        },
        {
          "internalType": "address",
          "name": "owner",
          "type": "address"
        },
        {
          "internalType": "bool",
          "name": "active",
          "type": "bool"
        },
        {
          "internalType": "bool",
          "name": "finalized",
          "type": "bool"
        }
      ],
      "stateMutability": "view",
      "type": "function"
    },
    {
      "inputs": [
        {
          "internalType": "address",
          "name": "_deedRepositoryAddress",
          "type": "address"
        },
        {
          "internalType": "uint256",
          "name": "_deedId",
          "type": "uint256"
        },
        {
          "internalType": "string",
          "name": "_auctionTitle",
          "type": "string"
        },
        {
          "internalType": "string",
          "name": "_metadata",
          "type": "string"
        },
        {
          "internalType": "uint256",
          "name": "_startPrice",
          "type": "uint256"
        },
        {
          "internalType": "uint256",
          "name": "_blockDeadline",
          "type": "uint256"
        }
      ],
      "name": "createAuction",
      "outputs": [
        {
          "internalType": "bool",
          "name": "",
          "type": "bool"
        }
      ],
      "stateMutability": "nonpayable",
      "type": "function"
    },
    {
      "inputs": [
        {
          "internalType": "uint256",
          "name": "_auctionId",
          "type": "uint256"
        }
      ],
      "name": "cancelAuction",
      "outputs": [],
      "stateMutability": "nonpayable",
      "type": "function"
    },
    {
      "inputs": [
        {
          "internalType": "uint256",
          "name": "_auctionId",
          "type": "uint256"
        }
      ],
      "name": "finalizeAuction",
      "outputs": [],
      "stateMutability": "nonpayable",
      "type": "function"
    },
    {
      "inputs": [
        {
          "internalType": "uint256",
          "name": "_auctionId",
          "type": "uint256"
        }
      ],
      "name": "bidOnAuction",
      "outputs": [],
      "stateMutability": "payable",
      "type": "function"
    }
  ],
  "bytecode": "0x608060405234801561001057600080fd5b506128ea806100206000396000f3fe6080604052600436106100c65760003560e01c8063a87d942c1161007f578063d56aa55811610059578063d56aa558146106bb578063da4e364f14610720578063e1b96581146107a2578063e808386314610957576100d0565b8063a87d942c1461057b578063b1b61bfa146105a6578063c8756cda1461064c576100d0565b806318111ada146100d557806326b7aeea146102865780634008f9c0146102b4578063571a26a0146103035780635f93de49146104b457806396b5a75514610540576100d0565b366100d057600080fd5b600080fd5b3480156100e157600080fd5b5061010e600480360360208110156100f857600080fd5b8101908080359060200190929190505050610992565b60405180806020018a8152602001898152602001806020018881526020018773ffffffffffffffffffffffffffffffffffffffff1673ffffffffffffffffffffffffffffffffffffffff1681526020018673ffffffffffffffffffffffffffffffffffffffff1673ffffffffffffffffffffffffffffffffffffffff168152602001851515151581526020018415151515815260200183810383528c818151815260200191508051906020019080838360005b838110156101dc5780820151818401526020810190506101c1565b50505050905090810190601f1680156102095780820380516001836020036101000a031916815260200191505b50838103825289818151815260200191508051906020019080838360005b83811015610242578082015181840152602081019050610227565b50505050905090810190601f16801561026f5780820380516001836020036101000a031916815260200191505b509b50505050505050505050505060405180910390f35b6102b26004803603602081101561029c57600080fd5b8101908080359060200190929190505050610c64565b005b3480156102c057600080fd5b506102ed600480360360208110156102d757600080fd5b8101908080359060200190929190505050611232565b6040518082815260200191505060405180910390f35b34801561030f57600080fd5b5061033c6004803603602081101561032657600080fd5b8101908080359060200190929190505050611252565b60405180806020018a8152602001898152602001806020018881526020018773ffffffffffffffffffffffffffffffffffffffff1673ffffffffffffffffffffffffffffffffffffffff1681526020018673ffffffffffffffffffffffffffffffffffffffff1673ffffffffffffffffffffffffffffffffffffffff168152602001851515151581526020018415151515815260200183810383528c818151815260200191508051906020019080838360005b8381101561040a5780820151818401526020810190506103ef565b50505050905090810190601f1680156104375780820380516001836020036101000a031916815260200191505b50838103825289818151815260200191508051906020019080838360005b83811015610470578082015181840152602081019050610455565b50505050905090810190601f16801561049d5780820380516001836020036101000a031916815260200191505b509b50505050505050505050505060405180910390f35b3480156104c057600080fd5b506104f7600480360360408110156104d757600080fd5b810190808035906020019092919080359060200190929190505050611437565b604051808373ffffffffffffffffffffffffffffffffffffffff1673ffffffffffffffffffffffffffffffffffffffff1681526020018281526020019250505060405180910390f35b34801561054c57600080fd5b506105796004803603602081101561056357600080fd5b8101908080359060200190929190505050611495565b005b34801561058757600080fd5b50610590611a41565b6040518082815260200191505060405180910390f35b3480156105b257600080fd5b506105f5600480360360208110156105c957600080fd5b81019080803573ffffffffffffffffffffffffffffffffffffffff169060200190929190505050611a4d565b6040518080602001828103825283818151815260200191508051906020019060200280838360005b8381101561063857808201518184015260208101905061061d565b505050509050019250505060405180910390f35b34801561065857600080fd5b506106a56004803603604081101561066f57600080fd5b81019080803573ffffffffffffffffffffffffffffffffffffffff16906020019092919080359060200190929190505050611ae4565b6040518082815260200191505060405180910390f35b3480156106c757600080fd5b5061070a600480360360208110156106de57600080fd5b81019080803573ffffffffffffffffffffffffffffffffffffffff169060200190929190505050611b12565b6040518082815260200191505060405180910390f35b34801561072c57600080fd5b506107596004803603602081101561074357600080fd5b8101908080359060200190929190505050611b5e565b604051808381526020018273ffffffffffffffffffffffffffffffffffffffff1673ffffffffffffffffffffffffffffffffffffffff1681526020019250505060405180910390f35b3480156107ae57600080fd5b5061093d600480360360c08110156107c557600080fd5b81019080803573ffffffffffffffffffffffffffffffffffffffff169060200190929190803590602001909291908035906020019064010000000081111561080c57600080fd5b82018360208201111561081e57600080fd5b8035906020019184600183028401116401000000008311171561084057600080fd5b91908080601f016020809104026020016040519081016040528093929190818152602001838380828437600081840152601f19601f820116905080830192505050505050509192919290803590602001906401000000008111156108a357600080fd5b8201836020820111156108b557600080fd5b803590602001918460018302840111640100000000831117156108d757600080fd5b91908080601f016020809104026020016040519081016040528093929190818152602001838380828437600081840152601f19601f8201169050808301925050505050505091929192908035906020019092919080359060200190929190505050611c55565b604051808215151515815260200191505060405180910390f35b34801561096357600080fd5b506109906004803603602081101561097a57600080fd5b8101908080359060200190929190505050612097565b005b6060600080606060008060008060006109a961273d565b60008b815481106109b657fe5b906000526020600020906007020160405180610120016040529081600082018054600181600116156101000203166002900480601f016020809104026020016040519081016040528092919081815260200182805460018160011615610100020316600290048015610a695780601f10610a3e57610100808354040283529160200191610a69565b820191906000526020600020905b815481529060010190602001808311610a4c57829003601f168201915b505050505081526020016001820154815260200160028201548152602001600382018054600181600116156101000203166002900480601f016020809104026020016040519081016040528092919081815260200182805460018160011615610100020316600290048015610b1f5780601f10610af457610100808354040283529160200191610b1f565b820191906000526020600020905b815481529060010190602001808311610b0257829003601f168201915b50505050508152602001600482015481526020016005820160009054906101000a900473ffffffffffffffffffffffffffffffffffffffff1673ffffffffffffffffffffffffffffffffffffffff1673ffffffffffffffffffffffffffffffffffffffff1681526020016006820160009054906101000a900473ffffffffffffffffffffffffffffffffffffffff1673ffffffffffffffffffffffffffffffffffffffff1673ffffffffffffffffffffffffffffffffffffffff1681526020016006820160149054906101000a900460ff161515151581526020016006820160159054906101000a900460ff1615151515815250509050806000015181602001518260400151836060015184608001518560a001518660c001518760e00151886101000151995099509950995099509950995099509950509193959799909294969850565b6000349050610c7161273d565b60008381548110610c7e57fe5b906000526020600020906007020160405180610120016040529081600082018054600181600116156101000203166002900480601f016020809104026020016040519081016040528092919081815260200182805460018160011615610100020316600290048015610d315780601f10610d0657610100808354040283529160200191610d31565b820191906000526020600020905b815481529060010190602001808311610d1457829003601f168201915b505050505081526020016001820154815260200160028201548152602001600382018054600181600116156101000203166002900480601f016020809104026020016040519081016040528092919081815260200182805460018160011615610100020316600290048015610de75780601f10610dbc57610100808354040283529160200191610de7565b820191906000526020600020905b815481529060010190602001808311610dca57829003601f168201915b50505050508152602001600482015481526020016005820160009054906101000a900473ffffffffffffffffffffffffffffffffffffffff1673ffffffffffffffffffffffffffffffffffffffff1673ffffffffffffffffffffffffffffffffffffffff1681526020016006820160009054906101000a900473ffffffffffffffffffffffffffffffffffffffff1673ffffffffffffffffffffffffffffffffffffffff1673ffffffffffffffffffffffffffffffffffffffff1681526020016006820160149054906101000a900460ff161515151581526020016006820160159054906101000a900460ff16151515158152505090503373ffffffffffffffffffffffffffffffffffffffff168160c0015173ffffffffffffffffffffffffffffffffffffffff161415610f1b57600080fd5b8060200151421115610f2c57600080fd5b600060016000858152602001908152602001600020805490509050600082604001519050610f586127b9565b600083111561100557600160008781526020019081526020016000206001840381548110610f8257fe5b90600052602060002090600202016040518060400160405290816000820160009054906101000a900473ffffffffffffffffffffffffffffffffffffffff1673ffffffffffffffffffffffffffffffffffffffff1673ffffffffffffffffffffffffffffffffffffffff1681526020016001820154815250509050806020015191505b8185101561101257600080fd5b60008311156110e4576000816000015173ffffffffffffffffffffffffffffffffffffffff16826020015160405180600001905060006040518083038185875af1925050503d8060008114611083576040519150601f19603f3d011682016040523d82523d6000602084013e611088565b606091505b50509050806110e2576040517f08c379a000000000000000000000000000000000000000000000000000000000815260040180806020018281038252602681526020018061288f6026913960400191505060405180910390fd5b505b6110ec6127b9565b33816000019073ffffffffffffffffffffffffffffffffffffffff16908173ffffffffffffffffffffffffffffffffffffffff1681525050858160200181815250506001600088815260200190815260200160002081908060018154018082558091505060019003906000526020600020906002020160009091909190915060008201518160000160006101000a81548173ffffffffffffffffffffffffffffffffffffffff021916908373ffffffffffffffffffffffffffffffffffffffff1602179055506020820151816001015550507f5762e6a7d331cd17a1761e94de3ea3b85e90ee6cdd9d1204e361cc650689d4633388604051808373ffffffffffffffffffffffffffffffffffffffff1673ffffffffffffffffffffffffffffffffffffffff1681526020018281526020019250505060405180910390a150505050505050565b600060016000838152602001908152602001600020805490509050919050565b6000818154811061125f57fe5b9060005260206000209060070201600091509050806000018054600181600116156101000203166002900480601f01602080910402602001604051908101604052809291908181526020018280546001816001161561010002031660029004801561130b5780601f106112e05761010080835404028352916020019161130b565b820191906000526020600020905b8154815290600101906020018083116112ee57829003601f168201915b505050505090806001015490806002015490806003018054600181600116156101000203166002900480601f0160208091040260200160405190810160405280929190818152602001828054600181600116156101000203166002900480156113b55780601f1061138a576101008083540402835291602001916113b5565b820191906000526020600020905b81548152906001019060200180831161139857829003601f168201915b5050505050908060040154908060050160009054906101000a900473ffffffffffffffffffffffffffffffffffffffff16908060060160009054906101000a900473ffffffffffffffffffffffffffffffffffffffff16908060060160149054906101000a900460ff16908060060160159054906101000a900460ff16905089565b6001602052816000526040600020818154811061145057fe5b9060005260206000209060020201600091509150508060000160009054906101000a900473ffffffffffffffffffffffffffffffffffffffff16908060010154905082565b803373ffffffffffffffffffffffffffffffffffffffff16600082815481106114ba57fe5b906000526020600020906007020160060160009054906101000a900473ffffffffffffffffffffffffffffffffffffffff1673ffffffffffffffffffffffffffffffffffffffff1614611575576040517f08c379a000000000000000000000000000000000000000000000000000000000815260040180806020018281038252600d8152602001807f6d757374206265206f776e65720000000000000000000000000000000000000081525060200191505060405180910390fd5b61157d61273d565b6000838154811061158a57fe5b906000526020600020906007020160405180610120016040529081600082018054600181600116156101000203166002900480601f01602080910402602001604051908101604052809291908181526020018280546001816001161561010002031660029004801561163d5780601f106116125761010080835404028352916020019161163d565b820191906000526020600020905b81548152906001019060200180831161162057829003601f168201915b505050505081526020016001820154815260200160028201548152602001600382018054600181600116156101000203166002900480601f0160208091040260200160405190810160405280929190818152602001828054600181600116156101000203166002900480156116f35780601f106116c8576101008083540402835291602001916116f3565b820191906000526020600020905b8154815290600101906020018083116116d657829003601f168201915b50505050508152602001600482015481526020016005820160009054906101000a900473ffffffffffffffffffffffffffffffffffffffff1673ffffffffffffffffffffffffffffffffffffffff1673ffffffffffffffffffffffffffffffffffffffff1681526020016006820160009054906101000a900473ffffffffffffffffffffffffffffffffffffffff1673ffffffffffffffffffffffffffffffffffffffff1673ffffffffffffffffffffffffffffffffffffffff1681526020016006820160149054906101000a900460ff161515151581526020016006820160159054906101000a900460ff1615151515815250509050600060016000858152602001908152602001600020805490509050600081111561197c576118166127b9565b60016000868152602001908152602001600020600183038154811061183757fe5b90600052602060002090600202016040518060400160405290816000820160009054906101000a900473ffffffffffffffffffffffffffffffffffffffff1673ffffffffffffffffffffffffffffffffffffffff1673ffffffffffffffffffffffffffffffffffffffff16815260200160018201548152505090506000816000015173ffffffffffffffffffffffffffffffffffffffff16826020015160405180600001905060006040518083038185875af1925050503d806000811461191a576040519150601f19603f3d011682016040523d82523d6000602084013e61191f565b606091505b5050905080611979576040517f08c379a000000000000000000000000000000000000000000000000000000000815260040180806020018281038252602681526020018061288f6026913960400191505060405180910390fd5b50505b611994308360c001518460a0015185608001516125b8565b15611a3b5760008085815481106119a757fe5b906000526020600020906007020160060160146101000a81548160ff0219169083151502179055507f39e6c898ce035bbacd9ba4f9753534f8c9f976e0ff70be83cfe887f235afa1d33385604051808373ffffffffffffffffffffffffffffffffffffffff1673ffffffffffffffffffffffffffffffffffffffff1681526020018281526020019250505060405180910390a15b50505050565b60008080549050905090565b6060600260008373ffffffffffffffffffffffffffffffffffffffff1673ffffffffffffffffffffffffffffffffffffffff168152602001908152602001600020805480602002602001604051908101604052809291908181526020018280548015611ad857602002820191906000526020600020905b815481526020019060010190808311611ac4575b50505050509050919050565b60026020528160005260406000208181548110611afd57fe5b90600052602060002001600091509150505481565b6000600260008373ffffffffffffffffffffffffffffffffffffffff1673ffffffffffffffffffffffffffffffffffffffff168152602001908152602001600020805490509050919050565b6000806000600160008581526020019081526020016000208054905090506000811115611c4157611b8d6127b9565b600160008681526020019081526020016000206001830381548110611bae57fe5b90600052602060002090600202016040518060400160405290816000820160009054906101000a900473ffffffffffffffffffffffffffffffffffffffff1673ffffffffffffffffffffffffffffffffffffffff1673ffffffffffffffffffffffffffffffffffffffff168152602001600182015481525050905080602001518160000151809050935093505050611c50565b60008081915080905092509250505b915091565b6000868660008273ffffffffffffffffffffffffffffffffffffffff16636352211e836040518263ffffffff1660e01b81526004018082815260200191505060206040518083038186803b158015611cac57600080fd5b505afa158015611cc0573d6000803e3d6000fd5b505050506040513d6020811015611cd657600080fd5b810190808051906020019092919050505090503073ffffffffffffffffffffffffffffffffffffffff168173ffffffffffffffffffffffffffffffffffffffff1614611d8a576040517f08c379a000000000000000000000000000000000000000000000000000000000815260040180806020018281038252601b8152602001807f636f6e7472616374206d7573742062652064656564206f776e6572000000000081525060200191505060405180910390fd5b600080805490509050611d9b61273d565b89816000018190525086816020018181525050878160400181815250508881606001819052508a8160800181815250508b8160a0019073ffffffffffffffffffffffffffffffffffffffff16908173ffffffffffffffffffffffffffffffffffffffff1681525050338160c0019073ffffffffffffffffffffffffffffffffffffffff16908173ffffffffffffffffffffffffffffffffffffffff168152505060018160e001901515908115158152505060008161010001901515908115158152505060008190806001815401808255809150506001900390600052602060002090600702016000909190919091506000820151816000019080519060200190611ea69291906127e9565b5060208201518160010155604082015181600201556060820151816003019080519060200190611ed79291906127e9565b506080820151816004015560a08201518160050160006101000a81548173ffffffffffffffffffffffffffffffffffffffff021916908373ffffffffffffffffffffffffffffffffffffffff16021790555060c08201518160060160006101000a81548173ffffffffffffffffffffffffffffffffffffffff021916908373ffffffffffffffffffffffffffffffffffffffff16021790555060e08201518160060160146101000a81548160ff0219169083151502179055506101008201518160060160156101000a81548160ff0219169083151502179055505050600260003373ffffffffffffffffffffffffffffffffffffffff1673ffffffffffffffffffffffffffffffffffffffff1681526020019081526020016000208290806001815401808255809150506001900390600052602060002001600090919091909150557f3249a06bd478adf780bb7930214ad005e9cfa517d63221c0b77f27199d1a58b33383604051808373ffffffffffffffffffffffffffffffffffffffff1673ffffffffffffffffffffffffffffffffffffffff1681526020018281526020019250505060405180910390a16001955050505050509695505050505050565b61209f61273d565b600082815481106120ac57fe5b906000526020600020906007020160405180610120016040529081600082018054600181600116156101000203166002900480601f01602080910402602001604051908101604052809291908181526020018280546001816001161561010002031660029004801561215f5780601f106121345761010080835404028352916020019161215f565b820191906000526020600020905b81548152906001019060200180831161214257829003601f168201915b505050505081526020016001820154815260200160028201548152602001600382018054600181600116156101000203166002900480601f0160208091040260200160405190810160405280929190818152602001828054600181600116156101000203166002900480156122155780601f106121ea57610100808354040283529160200191612215565b820191906000526020600020905b8154815290600101906020018083116121f857829003601f168201915b50505050508152602001600482015481526020016005820160009054906101000a900473ffffffffffffffffffffffffffffffffffffffff1673ffffffffffffffffffffffffffffffffffffffff1673ffffffffffffffffffffffffffffffffffffffff1681526020016006820160009054906101000a900473ffffffffffffffffffffffffffffffffffffffff1673ffffffffffffffffffffffffffffffffffffffff1673ffffffffffffffffffffffffffffffffffffffff1681526020016006820160149054906101000a900460ff161515151581526020016006820160159054906101000a900460ff1615151515815250509050600060016000848152602001908152602001600020805490509050816020015142101561233857600080fd5b600081141561234f5761234a83611495565b6125b3565b6123576127b9565b60016000858152602001908152602001600020600183038154811061237857fe5b90600052602060002090600202016040518060400160405290816000820160009054906101000a900473ffffffffffffffffffffffffffffffffffffffff1673ffffffffffffffffffffffffffffffffffffffff1673ffffffffffffffffffffffffffffffffffffffff16815260200160018201548152505090506000816000015173ffffffffffffffffffffffffffffffffffffffff16826020015160405180600001905060006040518083038185875af1925050503d806000811461245b576040519150601f19603f3d011682016040523d82523d6000602084013e612460565b606091505b50509050806124ba576040517f08c379a000000000000000000000000000000000000000000000000000000000815260040180806020018281038252602681526020018061288f6026913960400191505060405180910390fd5b6124d23083600001518660a0015187608001516125b8565b156125b05760008086815481106124e557fe5b906000526020600020906007020160060160146101000a81548160ff02191690831515021790555060016000868154811061251c57fe5b906000526020600020906007020160060160156101000a81548160ff0219169083151502179055507f357afab190ee87fe0ef1c717f2728d2904d9e415a069d99f4d9382873cb3279d3386604051808373ffffffffffffffffffffffffffffffffffffffff1673ffffffffffffffffffffffffffffffffffffffff1681526020018281526020019250505060405180910390a15b50505b505050565b6000808390508073ffffffffffffffffffffffffffffffffffffffff1663095ea7b386856040518363ffffffff1660e01b8152600401808373ffffffffffffffffffffffffffffffffffffffff1673ffffffffffffffffffffffffffffffffffffffff16815260200182815260200192505050600060405180830381600087803b15801561264557600080fd5b505af1158015612659573d6000803e3d6000fd5b505050508073ffffffffffffffffffffffffffffffffffffffff166323b872dd8787866040518463ffffffff1660e01b8152600401808473ffffffffffffffffffffffffffffffffffffffff1673ffffffffffffffffffffffffffffffffffffffff1681526020018373ffffffffffffffffffffffffffffffffffffffff1673ffffffffffffffffffffffffffffffffffffffff1681526020018281526020019350505050600060405180830381600087803b15801561271857600080fd5b505af115801561272c573d6000803e3d6000fd5b505050506001915050949350505050565b6040518061012001604052806060815260200160008152602001600081526020016060815260200160008152602001600073ffffffffffffffffffffffffffffffffffffffff168152602001600073ffffffffffffffffffffffffffffffffffffffff1681526020016000151581526020016000151581525090565b6040518060400160405280600073ffffffffffffffffffffffffffffffffffffffff168152602001600081525090565b828054600181600116156101000203166002900490600052602060002090601f016020900481019282601f1061282a57805160ff1916838001178555612858565b82800160010185558215612858579182015b8281111561285757825182559160200191906001019061283c565b5b5090506128659190612869565b5090565b61288b91905b8082111561288757600081600090555060010161286f565b5090565b9056fe4661696c656420746f207472616e73666572207468652066756e64732c2061626f7274696e67a264697066735822122083fb5799f8f57b740894dc2e76fc6c29207db9e0e44d40a127be68c1f502eb7564736f6c634300060a0033",
  "immutableReferences": {},
  "source": "// SPDX-License-Identifier: MIT\npragma solidity ^0.6.0;\n\nimport \"./DeedRepository.sol\";\n\n// solidity document style (Natspec)\n// https://medium.com/@jeancvllr/solidity-tutorial-all-about-comments-bc31c729975a\n\n/**\n * @title Auction Repository\n * This contracts allows auctions to be created for non-fungible tokens\n * Moreover, it includes the basic functionalities of an auction house\n */\ncontract AuctionRepository {\n    // Array with all auctions\n    Auction[] public auctions;\n    // Mapping from auction index to user bids\n    mapping(uint256 => Bid[]) public auctionBids;\n    // Mapping from owner to a list of owned auctions\n    mapping(address => uint256[]) public auctionOwner;\n\n    // Bid struct to hold bidder and amount\n    struct Bid {\n        address payable from;\n        uint256 amount;\n    }\n\n    // Auction struct which holds all the required info\n    struct Auction {\n        string name;\n        // uint256 from 0 to 2^256-1\n        uint256 blockDeadline;\n        uint256 startPrice;\n        string metadata;\n        uint256 deedId;\n        address deedRepositoryAddress;\n        address owner;\n        bool active;\n        bool finalized;\n    }\n\n    /**\n     * @dev Guarantees msg.sender is owner of the given auction\n     * @param _auctionId uint256 ID of the auction to validate its ownership belongs to msg.sender\n     */\n    modifier isOwner(uint256 _auctionId) {\n        require(auctions[_auctionId].owner == msg.sender, \"must be owner\");\n        _;\n    }\n\n    /**\n     * @dev Guarantees this contract is owner of the given deed/token\n     * @param _deedRepositoryAddress address of the deed repository to validate from\n     * @param _deedId uint256 ID of the deed which has been registered in the deed repository\n     */\n    modifier contractIsDeedOwner(\n        address _deedRepositoryAddress,\n        uint256 _deedId\n    ) {\n        // ownerOf is a function defined by ERC721\n        // function ownerOf(uint256 tokenId) public view override returns (address) {\n        address deedOwner = DeedRepository(_deedRepositoryAddress).ownerOf(\n            _deedId\n        );\n        require(deedOwner == address(this), \"contract must be deed owner\");\n        _;\n    }\n\n    /**\n     * @dev Disallow payments to this contract directly\n     */\n    receive() external payable {\n        revert();\n    }\n\n    /**\n     * @dev Gets the length of auctions\n     * @return uint256 representing the auction count\n     */\n    function getCount() public view returns (uint256) {\n        return auctions.length;\n    }\n\n    /**\n     * @dev Gets the bid counts of a given auction\n     * @param _auctionId uint256 ID of the auction\n     */\n    function getBidsCount(uint256 _auctionId) public view returns (uint256) {\n        return auctionBids[_auctionId].length;\n    }\n\n    /**\n     * @dev Gets an array of owned auctions\n     * @param _owner address of the auction owner\n     */\n    function getAuctionsOf(address _owner)\n        public\n        view\n        returns (uint256[] memory)\n    {\n        return auctionOwner[_owner];\n    }\n\n    /**\n     * @dev Gets an array of owned auctions\n     * @param _auctionId uint256 of the auction owner\n     * @return amount uint256, address of last bidder\n     */\n    function getCurrentBid(uint256 _auctionId)\n        public\n        view\n        returns (uint256, address)\n    {\n        uint256 bidsLength = auctionBids[_auctionId].length;\n        // if there are bids refund the last bid\n        if (bidsLength > 0) {\n            Bid memory lastBid = auctionBids[_auctionId][bidsLength - 1];\n            return (lastBid.amount, lastBid.from);\n        }\n        return (0, address(0));\n    }\n\n    /**\n     * @dev Gets the total number of auctions owned by an address\n     * @param _owner address of the owner\n     * @return uint256 total number of auctions\n     */\n    function getAuctionsCountOfOwner(address _owner)\n        public\n        view\n        returns (uint256)\n    {\n        return auctionOwner[_owner].length;\n    }\n\n    /**\n     * @dev Gets the info of a given auction which are stored within a struct\n     * @param _auctionId uint256 ID of the auction\n     * @return name string name of the auction\n     * @return blockDeadline uint256 timestamp of the auction in which it expires\n     * @return startPrice uint256 starting price of the auction\n     * @return metadata string metadata representing the metadata of the auction\n     * @return deedId uint256 deedId ID of the deed registered in DeedRepository\n     * @return deedRepositoryAddress address Address of the DeedRepository\n     * @return owner address owner of the auction\n     * @return active bool whether the auction is active\n     * @return finalized bool whether the auction is finalized\n     */\n    function getAuctionById(uint256 _auctionId)\n        public\n        view\n        returns (\n            string memory name,\n            uint256 blockDeadline,\n            uint256 startPrice,\n            string memory metadata,\n            uint256 deedId,\n            address deedRepositoryAddress,\n            address owner,\n            bool active,\n            bool finalized\n        )\n    {\n        Auction memory auc = auctions[_auctionId];\n        return (\n            auc.name,\n            auc.blockDeadline,\n            auc.startPrice,\n            auc.metadata,\n            auc.deedId,\n            auc.deedRepositoryAddress,\n            auc.owner,\n            auc.active,\n            auc.finalized\n        );\n    }\n\n    /**\n     * @dev Creates an auction with the given informatin\n     * @param _deedRepositoryAddress address of the DeedRepository contract\n     * @param _deedId uint256 of the deed registered in DeedRepository\n     * @param _auctionTitle string containing auction title\n     * @param _metadata string containing auction metadata\n     * @param _startPrice uint256 starting price of the auction\n     * @param _blockDeadline uint is the timestamp in which the auction expires\n     * @return bool whether the auction is created\n     */\n    function createAuction(\n        address _deedRepositoryAddress,\n        uint256 _deedId,\n        string memory _auctionTitle,\n        string memory _metadata,\n        uint256 _startPrice,\n        uint256 _blockDeadline\n    )\n        public\n        contractIsDeedOwner(_deedRepositoryAddress, _deedId)\n        returns (bool)\n    {\n        uint256 auctionId = auctions.length;\n        Auction memory newAuction;\n        newAuction.name = _auctionTitle;\n        newAuction.blockDeadline = _blockDeadline;\n        newAuction.startPrice = _startPrice;\n        newAuction.metadata = _metadata;\n        newAuction.deedId = _deedId;\n        newAuction.deedRepositoryAddress = _deedRepositoryAddress;\n        newAuction.owner = msg.sender;\n        newAuction.active = true;\n        newAuction.finalized = false;\n\n        auctions.push(newAuction);\n        auctionOwner[msg.sender].push(auctionId);\n\n        emit AuctionCreated(msg.sender, auctionId);\n        return true;\n    }\n\n    function approveAndTransfer(\n        address _from,\n        address _to,\n        address _deedRepositoryAddress,\n        uint256 _deedId\n    ) internal returns (bool) {\n        DeedRepository remoteContract = DeedRepository(_deedRepositoryAddress);\n        remoteContract.approve(_to, _deedId);\n        remoteContract.transferFrom(_from, _to, _deedId);\n        return true;\n    }\n\n    /**\n     * @dev Cancels an ongoing auction by the owner\n     * @dev Deed is transfered back to the auction owner\n     * @dev Bidder is refunded with the initial amount\n     * @param _auctionId uint ID of the created auction\n     */\n    function cancelAuction(uint256 _auctionId) public isOwner(_auctionId) {\n        Auction memory myAuction = auctions[_auctionId];\n        uint256 bidsLength = auctionBids[_auctionId].length;\n        // if there are bids refund the last bid\n        if (bidsLength > 0) {\n            Bid memory lastBid = auctionBids[_auctionId][bidsLength - 1];\n            // send vs transfer\n            // https://ethereum.stackexchange.com/questions/19341/address-send-vs-address-transfer-best-practice-usage\n            // https://ethereum.stackexchange.com/questions/82412/using-value-is-deprecated-use-value-instead\n            // https://vomtom.at/solidity-0-6-4-and-call-value-curly-brackets/\n            (bool success, ) = lastBid.from.call{value: lastBid.amount}(\"\");\n            // require, assert and revert\n            // https://ethereum.stackexchange.com/questions/15166/difference-between-require-and-assert-and-the-difference-between-revert-and-thro\n            // https://medium.com/blockchannel/the-use-of-revert-assert-and-require-in-solidity-and-the-new-revert-opcode-in-the-evm-1a3a7990e06e\n            require(success, \"Failed to transfer the funds, aborting\");\n        }\n\n        // approve and transfer from this contract to auction owner\n        if (\n            approveAndTransfer(\n                address(this),\n                myAuction.owner,\n                myAuction.deedRepositoryAddress,\n                myAuction.deedId\n            )\n        ) {\n            auctions[_auctionId].active = false;\n            emit AuctionCanceled(msg.sender, _auctionId);\n        }\n    }\n\n    /**\n     * @dev Finalized an ended auction\n     * @dev The auction should be ended, and there should be at least one bid\n     * @dev On success Deed is transfered to bidder and auction owner gets the amount\n     * @param _auctionId uint ID of the created auction\n     */\n    function finalizeAuction(uint256 _auctionId) public {\n        Auction memory myAuction = auctions[_auctionId];\n        uint256 bidsLength = auctionBids[_auctionId].length;\n\n        // 1. if auction not ended just revert\n        if (block.timestamp < myAuction.blockDeadline) revert();\n\n        // if there are no bids cancel\n        if (bidsLength == 0) {\n            cancelAuction(_auctionId);\n        } else {\n            // 2. the money goes to the auction owner\n            Bid memory lastBid = auctionBids[_auctionId][bidsLength - 1];\n            (bool success, ) = lastBid.from.call{value: lastBid.amount}(\"\");\n            require(success, \"Failed to transfer the funds, aborting\");\n\n            // approve and transfer from this contract to the bid winner\n            if (\n                approveAndTransfer(\n                    address(this),\n                    lastBid.from,\n                    myAuction.deedRepositoryAddress,\n                    myAuction.deedId\n                )\n            ) {\n                auctions[_auctionId].active = false;\n                auctions[_auctionId].finalized = true;\n                emit AuctionFinalized(msg.sender, _auctionId);\n            }\n        }\n    }\n\n    /**\n     * @dev Bidder sends bid on an auction\n     * @dev Auction should be active and not ended\n     * @dev Refund previous bidder if a new bid is valid and placed.\n     * @param _auctionId uint ID of the created auction\n     */\n    function bidOnAuction(uint256 _auctionId) external payable {\n        uint256 ethAmountSent = msg.value;\n\n        // owner can't bid on their auctions\n        Auction memory myAuction = auctions[_auctionId];\n        if (myAuction.owner == msg.sender) revert();\n\n        // if auction is expired\n        if (block.timestamp > myAuction.blockDeadline) revert();\n\n        uint256 bidsLength = auctionBids[_auctionId].length;\n        uint256 tempAmount = myAuction.startPrice;\n        Bid memory lastBid;\n\n        // there are previous bids\n        if (bidsLength > 0) {\n            lastBid = auctionBids[_auctionId][bidsLength - 1];\n            tempAmount = lastBid.amount;\n        }\n\n        // check if amount is greater than previous amount\n        if (ethAmountSent < tempAmount) revert();\n\n        // refund the last bidder\n        // be careful of reentrancy attack!\n        if (bidsLength > 0) {\n            (bool success, ) = lastBid.from.call{value: lastBid.amount}(\"\");\n            require(success, \"Failed to transfer the funds, aborting\");\n        }\n\n        // insert bid\n        Bid memory newBid;\n        newBid.from = msg.sender;\n        newBid.amount = ethAmountSent;\n        auctionBids[_auctionId].push(newBid);\n        emit BidSuccess(msg.sender, _auctionId);\n    }\n\n    // BidSuccess is fired when a bid is received\n    event BidSuccess(address _from, uint256 _auctionId);\n\n    // AuctionCreated is fired when an auction is created\n    event AuctionCreated(address _owner, uint256 _auctionId);\n\n    // AuctionCanceled is fired when an auction is canceled\n    event AuctionCanceled(address _owner, uint256 _auctionId);\n\n    // AuctionFinalized is fired when an auction is finalized\n    event AuctionFinalized(address _owner, uint256 _auctionId);\n}\n",
  "sourcePath": "/home/min/Projects/auction-dapp/backend/contracts/AuctionRepository.sol",
  "compiler": {
    "name": "solc",
    "version": "0.6.10+commit.00c0fcaf.Emscripten.clang"
  },
  "schemaVersion": "3.1.0",
  "updatedAt": "2020-06-29T13:01:44.505Z",
  "devdoc": {
    "methods": {
      "bidOnAuction(uint256)": {
        "details": "Bidder sends bid on an auctionAuction should be active and not endedRefund previous bidder if a new bid is valid and placed.",
        "params": {
          "_auctionId": "uint ID of the created auction"
        }
      },
      "cancelAuction(uint256)": {
        "details": "Cancels an ongoing auction by the ownerDeed is transfered back to the auction ownerBidder is refunded with the initial amount",
        "params": {
          "_auctionId": "uint ID of the created auction"
        }
      },
      "createAuction(address,uint256,string,string,uint256,uint256)": {
        "details": "Creates an auction with the given informatin",
        "params": {
          "_auctionTitle": "string containing auction title",
          "_blockDeadline": "uint is the timestamp in which the auction expires",
          "_deedId": "uint256 of the deed registered in DeedRepository",
          "_deedRepositoryAddress": "address of the DeedRepository contract",
          "_metadata": "string containing auction metadata",
          "_startPrice": "uint256 starting price of the auction"
        },
        "returns": {
          "_0": "bool whether the auction is created"
        }
      },
      "finalizeAuction(uint256)": {
        "details": "Finalized an ended auctionThe auction should be ended, and there should be at least one bidOn success Deed is transfered to bidder and auction owner gets the amount",
        "params": {
          "_auctionId": "uint ID of the created auction"
        }
      },
      "getAuctionById(uint256)": {
        "details": "Gets the info of a given auction which are stored within a struct",
        "params": {
          "_auctionId": "uint256 ID of the auction"
        },
        "returns": {
          "active": "bool whether the auction is active",
          "blockDeadline": "uint256 timestamp of the auction in which it expires",
          "deedId": "uint256 deedId ID of the deed registered in DeedRepository",
          "deedRepositoryAddress": "address Address of the DeedRepository",
          "finalized": "bool whether the auction is finalized",
          "metadata": "string metadata representing the metadata of the auction",
          "name": "string name of the auction",
          "owner": "address owner of the auction",
          "startPrice": "uint256 starting price of the auction"
        }
      },
      "getAuctionsCountOfOwner(address)": {
        "details": "Gets the total number of auctions owned by an address",
        "params": {
          "_owner": "address of the owner"
        },
        "returns": {
          "_0": "uint256 total number of auctions"
        }
      },
      "getAuctionsOf(address)": {
        "details": "Gets an array of owned auctions",
        "params": {
          "_owner": "address of the auction owner"
        }
      },
      "getBidsCount(uint256)": {
        "details": "Gets the bid counts of a given auction",
        "params": {
          "_auctionId": "uint256 ID of the auction"
        }
      },
      "getCount()": {
        "details": "Gets the length of auctions",
        "returns": {
          "_0": "uint256 representing the auction count"
        }
      },
      "getCurrentBid(uint256)": {
        "details": "Gets an array of owned auctions",
        "params": {
          "_auctionId": "uint256 of the auction owner"
        },
        "returns": {
          "_0": "amount uint256, address of last bidder"
        }
      }
    },
    "title": "Auction Repository This contracts allows auctions to be created for non-fungible tokens Moreover, it includes the basic functionalities of an auction house"
  },
  "userdoc": {
    "methods": {}
  }
}